{
  "_format": "hh-sol-artifact-1",
  "contractName": "PokerGameSimple",
  "sourceName": "contracts/PokerGameSimple.sol",
  "abi": [
    {
      "inputs": [],
      "stateMutability": "nonpayable",
      "type": "constructor"
    },
    {
      "inputs": [
        {
          "internalType": "address",
          "name": "owner",
          "type": "address"
        }
      ],
      "name": "OwnableInvalidOwner",
      "type": "error"
    },
    {
      "inputs": [
        {
          "internalType": "address",
          "name": "account",
          "type": "address"
        }
      ],
      "name": "OwnableUnauthorizedAccount",
      "type": "error"
    },
    {
      "inputs": [],
      "name": "ReentrancyGuardReentrantCall",
      "type": "error"
    },
    {
      "anonymous": false,
      "inputs": [
        {
          "indexed": true,
          "internalType": "uint256",
          "name": "gameId",
          "type": "uint256"
        },
        {
          "indexed": false,
          "internalType": "uint8",
          "name": "gameType",
          "type": "uint8"
        },
        {
          "indexed": false,
          "internalType": "uint256",
          "name": "maxPlayers",
          "type": "uint256"
        },
        {
          "indexed": false,
          "internalType": "uint256",
          "name": "minBet",
          "type": "uint256"
        }
      ],
      "name": "GameCreated",
      "type": "event"
    },
    {
      "anonymous": false,
      "inputs": [
        {
          "indexed": true,
          "internalType": "uint256",
          "name": "gameId",
          "type": "uint256"
        },
        {
          "indexed": true,
          "internalType": "address",
          "name": "winner",
          "type": "address"
        },
        {
          "indexed": false,
          "internalType": "uint256",
          "name": "prize",
          "type": "uint256"
        }
      ],
      "name": "GameEnded",
      "type": "event"
    },
    {
      "anonymous": false,
      "inputs": [
        {
          "indexed": true,
          "internalType": "uint256",
          "name": "gameId",
          "type": "uint256"
        },
        {
          "indexed": false,
          "internalType": "address[]",
          "name": "players",
          "type": "address[]"
        },
        {
          "indexed": false,
          "internalType": "uint256",
          "name": "totalPot",
          "type": "uint256"
        }
      ],
      "name": "GameStarted",
      "type": "event"
    },
    {
      "anonymous": false,
      "inputs": [
        {
          "indexed": true,
          "internalType": "address",
          "name": "previousOwner",
          "type": "address"
        },
        {
          "indexed": true,
          "internalType": "address",
          "name": "newOwner",
          "type": "address"
        }
      ],
      "name": "OwnershipTransferred",
      "type": "event"
    },
    {
      "anonymous": false,
      "inputs": [
        {
          "indexed": true,
          "internalType": "uint256",
          "name": "gameId",
          "type": "uint256"
        },
        {
          "indexed": true,
          "internalType": "address",
          "name": "player",
          "type": "address"
        },
        {
          "indexed": false,
          "internalType": "uint256",
          "name": "totalPlayers",
          "type": "uint256"
        }
      ],
      "name": "PlayerJoined",
      "type": "event"
    },
    {
      "anonymous": false,
      "inputs": [
        {
          "indexed": true,
          "internalType": "uint256",
          "name": "gameId",
          "type": "uint256"
        },
        {
          "indexed": true,
          "internalType": "address",
          "name": "player",
          "type": "address"
        },
        {
          "indexed": false,
          "internalType": "uint256",
          "name": "moveId",
          "type": "uint256"
        },
        {
          "indexed": false,
          "internalType": "uint256",
          "name": "timestamp",
          "type": "uint256"
        }
      ],
      "name": "PlayerMoved",
      "type": "event"
    },
    {
      "inputs": [],
      "name": "CARDS_PER_HAND",
      "outputs": [
        {
          "internalType": "uint256",
          "name": "",
          "type": "uint256"
        }
      ],
      "stateMutability": "view",
      "type": "function"
    },
    {
      "inputs": [],
      "name": "MAX_PLAYERS",
      "outputs": [
        {
          "internalType": "uint256",
          "name": "",
          "type": "uint256"
        }
      ],
      "stateMutability": "view",
      "type": "function"
    },
    {
      "inputs": [],
      "name": "MIN_BET",
      "outputs": [
        {
          "internalType": "uint256",
          "name": "",
          "type": "uint256"
        }
      ],
      "stateMutability": "view",
      "type": "function"
    },
    {
      "inputs": [
        {
          "internalType": "uint8",
          "name": "_gameType",
          "type": "uint8"
        },
        {
          "internalType": "uint256",
          "name": "_maxPlayers",
          "type": "uint256"
        },
        {
          "internalType": "uint256",
          "name": "_minBet",
          "type": "uint256"
        }
      ],
      "name": "createGame",
      "outputs": [
        {
          "internalType": "uint256",
          "name": "",
          "type": "uint256"
        }
      ],
      "stateMutability": "nonpayable",
      "type": "function"
    },
    {
      "inputs": [],
      "name": "gameCounter",
      "outputs": [
        {
          "internalType": "uint256",
          "name": "",
          "type": "uint256"
        }
      ],
      "stateMutability": "view",
      "type": "function"
    },
    {
      "inputs": [
        {
          "internalType": "uint256",
          "name": "",
          "type": "uint256"
        },
        {
          "internalType": "uint256",
          "name": "",
          "type": "uint256"
        }
      ],
      "name": "gameMoves",
      "outputs": [
        {
          "internalType": "uint256",
          "name": "gameId",
          "type": "uint256"
        },
        {
          "internalType": "address",
          "name": "player",
          "type": "address"
        },
        {
          "internalType": "bool",
          "name": "call",
          "type": "bool"
        },
        {
          "internalType": "bool",
          "name": "raise",
          "type": "bool"
        },
        {
          "internalType": "bool",
          "name": "fold",
          "type": "bool"
        },
        {
          "internalType": "uint256",
          "name": "betAmount",
          "type": "uint256"
        },
        {
          "internalType": "uint256",
          "name": "timestamp",
          "type": "uint256"
        }
      ],
      "stateMutability": "view",
      "type": "function"
    },
    {
      "inputs": [
        {
          "internalType": "uint256",
          "name": "",
          "type": "uint256"
        }
      ],
      "name": "games",
      "outputs": [
        {
          "internalType": "uint256",
          "name": "gameId",
          "type": "uint256"
        },
        {
          "internalType": "uint256",
          "name": "maxPlayers",
          "type": "uint256"
        },
        {
          "internalType": "uint256",
          "name": "currentPlayers",
          "type": "uint256"
        },
        {
          "internalType": "uint256",
          "name": "totalPot",
          "type": "uint256"
        },
        {
          "internalType": "uint256",
          "name": "minBet",
          "type": "uint256"
        },
        {
          "internalType": "uint8",
          "name": "gameType",
          "type": "uint8"
        },
        {
          "internalType": "bool",
          "name": "isActive",
          "type": "bool"
        },
        {
          "internalType": "bool",
          "name": "hasStarted",
          "type": "bool"
        },
        {
          "internalType": "uint256",
          "name": "currentRound",
          "type": "uint256"
        },
        {
          "internalType": "uint256",
          "name": "timestamp",
          "type": "uint256"
        }
      ],
      "stateMutability": "view",
      "type": "function"
    },
    {
      "inputs": [
        {
          "internalType": "uint256",
          "name": "_gameId",
          "type": "uint256"
        }
      ],
      "name": "getGameInfo",
      "outputs": [
        {
          "internalType": "uint256",
          "name": "gameId",
          "type": "uint256"
        },
        {
          "internalType": "uint256",
          "name": "maxPlayers",
          "type": "uint256"
        },
        {
          "internalType": "uint256",
          "name": "currentPlayers",
          "type": "uint256"
        },
        {
          "internalType": "uint256",
          "name": "totalPot",
          "type": "uint256"
        },
        {
          "internalType": "uint256",
          "name": "minBet",
          "type": "uint256"
        },
        {
          "internalType": "uint8",
          "name": "gameType",
          "type": "uint8"
        },
        {
          "internalType": "bool",
          "name": "isActive",
          "type": "bool"
        },
        {
          "internalType": "bool",
          "name": "hasStarted",
          "type": "bool"
        },
        {
          "internalType": "address[]",
          "name": "players",
          "type": "address[]"
        },
        {
          "internalType": "uint256",
          "name": "currentRound",
          "type": "uint256"
        },
        {
          "internalType": "uint256",
          "name": "timestamp",
          "type": "uint256"
        }
      ],
      "stateMutability": "view",
      "type": "function"
    },
    {
      "inputs": [
        {
          "internalType": "uint256",
          "name": "_gameId",
          "type": "uint256"
        },
        {
          "internalType": "address",
          "name": "_player",
          "type": "address"
        }
      ],
      "name": "getPlayerCards",
      "outputs": [
        {
          "internalType": "bool[]",
          "name": "",
          "type": "bool[]"
        }
      ],
      "stateMutability": "view",
      "type": "function"
    },
    {
      "inputs": [
        {
          "internalType": "address",
          "name": "_player",
          "type": "address"
        }
      ],
      "name": "getPlayerGames",
      "outputs": [
        {
          "internalType": "uint256[]",
          "name": "",
          "type": "uint256[]"
        }
      ],
      "stateMutability": "view",
      "type": "function"
    },
    {
      "inputs": [],
      "name": "getTotalGames",
      "outputs": [
        {
          "internalType": "uint256",
          "name": "",
          "type": "uint256"
        }
      ],
      "stateMutability": "view",
      "type": "function"
    },
    {
      "inputs": [
        {
          "internalType": "uint256",
          "name": "",
          "type": "uint256"
        },
        {
          "internalType": "address",
          "name": "",
          "type": "address"
        }
      ],
      "name": "hasJoined",
      "outputs": [
        {
          "internalType": "bool",
          "name": "",
          "type": "bool"
        }
      ],
      "stateMutability": "view",
      "type": "function"
    },
    {
      "inputs": [
        {
          "internalType": "uint256",
          "name": "_gameId",
          "type": "uint256"
        },
        {
          "internalType": "bool",
          "name": "_wantsToJoin",
          "type": "bool"
        }
      ],
      "name": "joinGame",
      "outputs": [],
      "stateMutability": "payable",
      "type": "function"
    },
    {
      "inputs": [
        {
          "internalType": "uint256",
          "name": "_gameId",
          "type": "uint256"
        },
        {
          "internalType": "bool",
          "name": "_call",
          "type": "bool"
        },
        {
          "internalType": "bool",
          "name": "_raise",
          "type": "bool"
        },
        {
          "internalType": "bool",
          "name": "_fold",
          "type": "bool"
        }
      ],
      "name": "makeMove",
      "outputs": [],
      "stateMutability": "payable",
      "type": "function"
    },
    {
      "inputs": [],
      "name": "moveCounter",
      "outputs": [
        {
          "internalType": "uint256",
          "name": "",
          "type": "uint256"
        }
      ],
      "stateMutability": "view",
      "type": "function"
    },
    {
      "inputs": [],
      "name": "owner",
      "outputs": [
        {
          "internalType": "address",
          "name": "",
          "type": "address"
        }
      ],
      "stateMutability": "view",
      "type": "function"
    },
    {
      "inputs": [
        {
          "internalType": "address",
          "name": "",
          "type": "address"
        },
        {
          "internalType": "uint256",
          "name": "",
          "type": "uint256"
        }
      ],
      "name": "playerGames",
      "outputs": [
        {
          "internalType": "uint256",
          "name": "",
          "type": "uint256"
        }
      ],
      "stateMutability": "view",
      "type": "function"
    },
    {
      "inputs": [
        {
          "internalType": "uint256",
          "name": "",
          "type": "uint256"
        },
        {
          "internalType": "address",
          "name": "",
          "type": "address"
        }
      ],
      "name": "playerStates",
      "outputs": [
        {
          "internalType": "address",
          "name": "player",
          "type": "address"
        },
        {
          "internalType": "uint256",
          "name": "gameId",
          "type": "uint256"
        },
        {
          "internalType": "bool",
          "name": "isActive",
          "type": "bool"
        },
        {
          "internalType": "uint256",
          "name": "betAmount",
          "type": "uint256"
        },
        {
          "internalType": "bool",
          "name": "hasFolded",
          "type": "bool"
        },
        {
          "internalType": "uint256",
          "name": "totalBet",
          "type": "uint256"
        },
        {
          "internalType": "uint256",
          "name": "lastAction",
          "type": "uint256"
        }
      ],
      "stateMutability": "view",
      "type": "function"
    },
    {
      "inputs": [],
      "name": "renounceOwnership",
      "outputs": [],
      "stateMutability": "nonpayable",
      "type": "function"
    },
    {
      "inputs": [
        {
          "internalType": "uint256",
          "name": "_gameId",
          "type": "uint256"
        },
        {
          "internalType": "bool[]",
          "name": "_cards",
          "type": "bool[]"
        }
      ],
      "name": "revealCards",
      "outputs": [],
      "stateMutability": "nonpayable",
      "type": "function"
    },
    {
      "inputs": [
        {
          "internalType": "address",
          "name": "newOwner",
          "type": "address"
        }
      ],
      "name": "transferOwnership",
      "outputs": [],
      "stateMutability": "nonpayable",
      "type": "function"
    }
  ],
  "bytecode": "0x608060405234801561000f575f80fd5b5060015f55338061003957604051631e4fbdf760e01b81525f600482015260240160405180910390fd5b61004281610051565b505f60078190556008556100a2565b600180546001600160a01b038381166001600160a01b0319831681179093556040519116919082907f8be0079c531659141344cd1fd0a4f28419497f9722a3daafe3b4186f6b6457e0905f90a35050565b611cf4806100af5f395ff3fe608060405260043610610162575f3560e01c80636540742f116100c657806394517b901161007c578063c653c9a111610057578063c653c9a114610522578063e52e22ff1461054e578063f2fde38b1461056d575f80fd5b806394517b90146104475780639f97f1fd1461045a578063c0338ba31461046d575f80fd5b806368575608116100ac57806368575608146103f8578063715018a61461040c5780638da5cb5b14610420575f80fd5b80636540742f1461039557806368194719146103af575f80fd5b8063330a85d41161011b57806347e1d5501161010157806347e1d5501461033657806348f640d91461036c5780635bd4349b14610381575f80fd5b8063330a85d4146103015780634411b3eb14610322575f80fd5b8063129daf841161014b578063129daf841461025c5780632a02ac63146102885780632e0be39a146102ec575f80fd5b80630a5694c214610166578063117a5b9014610198575b5f80fd5b348015610171575f80fd5b506101856101803660046118e3565b61058c565b6040519081526020015b60405180910390f35b3480156101a3575f80fd5b5061020b6101b236600461190b565b600260208190525f91825260409091208054600182015492820154600383015460048401546005850154600786015460089096015494969593949293919260ff808316936101008404821693620100009004909116918a565b604080519a8b5260208b0199909952978901969096526060880194909452608087019290925260ff1660a0860152151560c0850152151560e08401526101008301526101208201526101400161018f565b348015610267575f80fd5b5061027b610276366004611922565b6105b7565b60405161018f9190611942565b348015610293575f80fd5b506102a76102a2366004611985565b610620565b604080519788526001600160a01b0390961660208801529315159486019490945290151560608501521515608084015260a083019190915260c082015260e00161018f565b3480156102f7575f80fd5b5061018560075481565b34801561030c575f80fd5b5061032061031b3660046119c8565b61068e565b005b34801561032d575f80fd5b50610185600881565b348015610341575f80fd5b5061035561035036600461190b565b61083c565b60405161018f9b9a99989796959493929190611a94565b348015610377575f80fd5b5061018560085481565b34801561038c575f80fd5b50600754610185565b3480156103a0575f80fd5b50610185662386f26fc1000081565b3480156103ba575f80fd5b506103e86103c9366004611b34565b600660209081525f928352604080842090915290825290205460ff1681565b604051901515815260200161018f565b348015610403575f80fd5b50610185600581565b348015610417575f80fd5b50610320610928565b34801561042b575f80fd5b506001546040516001600160a01b03909116815260200161018f565b610320610455366004611b5e565b61093b565b610320610468366004611b7f565b610de8565b348015610478575f80fd5b506104db610487366004611b34565b600360208181525f9384526040808520909152918352912080546001820154928201546004830154600584015460068501546007909501546001600160a01b03909416959460ff9384169492939091169187565b604080516001600160a01b03909816885260208801969096529315159486019490945260608501919091521515608084015260a083019190915260c082015260e00161018f565b34801561052d575f80fd5b5061054161053c366004611b34565b611187565b60405161018f9190611bc9565b348015610559575f80fd5b50610185610568366004611c02565b61121b565b348015610578575f80fd5b50610320610587366004611922565b6114d2565b6005602052815f5260405f2081815481106105a5575f80fd5b905f5260205f20015f91509150505481565b6001600160a01b0381165f9081526005602090815260409182902080548351818402810184019094528084526060939283018282801561061457602002820191905f5260205f20905b815481526020019060010190808311610600575b50505050509050919050565b6004602052815f5260405f208181548110610639575f80fd5b5f91825260209091206004909102018054600182015460028301546003909301549194506001600160a01b038116935060ff600160a01b8204811693600160a81b8304821693600160b01b9093049091169187565b5f82815260026020526040902060050154610100900460ff166106ea5760405162461bcd60e51b815260206004820152600f60248201526e47616d65206e6f742061637469766560881b60448201526064015b60405180910390fd5b5f82815260066020908152604080832033845290915290205460ff166107405760405162461bcd60e51b815260206004820152600b60248201526a4e6f7420696e2067616d6560a81b60448201526064016106e1565b6005815111156107925760405162461bcd60e51b815260206004820152600e60248201527f546f6f206d616e7920636172647300000000000000000000000000000000000060448201526064016106e1565b5f8281526003602090815260408083203384529091528120905b8251811080156107bc5750600581105b15610836576002820154811015610824578281815181106107df576107df611c39565b60200260200101518260020182815481106107fc576107fc611c39565b905f5260205f2090602091828204019190066101000a81548160ff0219169083151502179055505b8061082e81611c61565b9150506107ac565b50505050565b5f8181526002602081815260408084208054600182015494820154600383015460048401546005850154600786015460088701546006880180548a51818d0281018d01909b52808b528d9c8d9c8d9c8d9c8d9c8d9c8d9c60609c8e9c8d9c959b949a989993989297919660ff808316976101008404821697620100009094049091169590938591908301828280156108fb57602002820191905f5260205f20905b81546001600160a01b031681526001909101906020018083116108dd575b505050505092509b509b509b509b509b509b509b509b509b509b509b505091939597999b90929496989a50565b61093061150f565b6109395f61153c565b565b61094361158d565b5f82815260026020526040902060050154610100900460ff1661099a5760405162461bcd60e51b815260206004820152600f60248201526e47616d65206e6f742061637469766560881b60448201526064016106e1565b5f8281526002602052604090206005015462010000900460ff1615610a015760405162461bcd60e51b815260206004820152601460248201527f47616d6520616c7265616479207374617274656400000000000000000000000060448201526064016106e1565b5f828152600260208190526040909120600181015491015410610a665760405162461bcd60e51b815260206004820152600960248201527f47616d652066756c6c000000000000000000000000000000000000000000000060448201526064016106e1565b5f82815260066020908152604080832033845290915290205460ff1615610acf5760405162461bcd60e51b815260206004820152600e60248201527f416c7265616479206a6f696e656400000000000000000000000000000000000060448201526064016106e1565b5f82815260026020526040902060040154341015610b2f5760405162461bcd60e51b815260206004820152601760248201527f496e73756666696369656e742062657420616d6f756e7400000000000000000060448201526064016106e1565b80610b7c5760405162461bcd60e51b815260206004820152601860248201527f506c61796572206d7573742077616e7420746f206a6f696e000000000000000060448201526064016106e1565b5f828152600260208181526040832060068101805460018101825590855291842090910180546001600160a01b0319163317905590810180549192610bc083611c61565b919050555034816003015f828254610bd89190611c79565b90915550505f8381526006602090815260408083203380855290835292819020805460ff191660011790558051610100810182529283528282018690528051600580825260c08201835291840192909190820160a080368337019050508152600160208083018290523460408085018290525f6060860181905260808601929092524260a090950194909452878152600382528381203382528252839020845181546001600160a01b0319166001600160a01b0390911617815584820151928101929092559183015180519192610cb7926002850192909101906117c1565b50606082015160038201805491151560ff199283161790556080830151600483015560a083015160058084018054921515929093169190911790915560c0830151600683015560e090920151600790910155335f8181526020928352604080822080546001810182559083529184902090910186905560028401549051908152909185917f03dfbe1fcb4e2d61f3b4a0c93d8f814c92250618b3387f396cc9fc9fafe2c203910160405180910390a38060010154816002015403610dda5760058101805462ff000019166201000017905560016007820155610d98836115b5565b827f13e9b6ae0391777337703847da7adf7556a75841658099d7190ef4c9ea1c4295826006018360030154604051610dd1929190611c8c565b60405180910390a25b50610de460015f55565b5050565b610df061158d565b5f84815260026020526040902060050154610100900460ff16610e475760405162461bcd60e51b815260206004820152600f60248201526e47616d65206e6f742061637469766560881b60448201526064016106e1565b5f8481526002602052604090206005015462010000900460ff16610ead5760405162461bcd60e51b815260206004820152601060248201527f47616d65206e6f7420737461727465640000000000000000000000000000000060448201526064016106e1565b5f84815260066020908152604080832033845290915290205460ff16610f035760405162461bcd60e51b815260206004820152600b60248201526a4e6f7420696e2067616d6560a81b60448201526064016106e1565b5f84815260026020908152604080832060038352818420338552909252909120600581015460ff1615610f785760405162461bcd60e51b815260206004820152601160248201527f506c617965722068617320666f6c64656400000000000000000000000000000060448201526064016106e1565b60088054905f610f8783611c61565b91905055505f848015610f9957505f34115b15610fd45734905034836003015f828254610fb49190611c79565b9250508190555034826006015f828254610fce9190611c79565b90915550505b8315610ff85760058201805460ff1990811660011790915560038301805490911690555b42600783018190555f888152600460208181526040808420815160e0810183528d8152338185018181528e15158386019081528e1515606085019081528e15156080860190815260a086018d815260c087018d8152885460018181018b55998e529a909c20965199909a02909501978855915194870180549151925194511515600160b01b027fffffffffffffffffff00ffffffffffffffffffffffffffffffffffffffffffff951515600160a81b02959095167fffffffffffffffffff0000ffffffffffffffffffffffffffffffffffffffffff931515600160a01b027fffffffffffffffffffffff0000000000000000000000000000000000000000009093166001600160a01b03979097169690961791909117919091169390931791909117909155925160028301559251600390910155600854915190928a927fb5ac3117b47d1355284f96ae97a243bdf1b9879eb07334364220e37d71fbdda49261116a9290918252602082015260400190565b60405180910390a361117b8761166b565b50505061083660015f55565b5f8281526003602090815260408083206001600160a01b038516845282529182902060020180548351818402810184019094528084526060939283018282801561120d57602002820191905f5260205f20905f905b825461010083900a900460ff1615158152602060019283018181049485019490930390920291018084116111dc5790505b505050505090505b92915050565b5f60038460ff1611156112705760405162461bcd60e51b815260206004820152601160248201527f496e76616c69642067616d65207479706500000000000000000000000000000060448201526064016106e1565b60028310158015611282575060088311155b6112ce5760405162461bcd60e51b815260206004820152601460248201527f496e76616c696420706c6179657220636f756e7400000000000000000000000060448201526064016106e1565b662386f26fc100008210156113255760405162461bcd60e51b815260206004820152600b60248201527f42657420746f6f206c6f7700000000000000000000000000000000000000000060448201526064016106e1565b60078054905f61133483611c61565b919050555060405180610160016040528060075481526020018481526020015f81526020015f81526020018381526020018560ff1681526020016001151581526020015f151581526020015f67ffffffffffffffff811115611398576113986119a5565b6040519080825280602002602001820160405280156113c1578160200160208202803683370190505b5081525f6020808301829052426040938401526007548252600280825291839020845181558482015160018201559284015191830191909155606083015160038301556080830151600483015560a083015160058301805460c086015160e08701511515620100000262ff00001991151561010090810261ffff1990941660ff90961695909517929092171617905583015180516114659260068501920190611861565b5061012082015160078083019190915561014090920151600890910155546040805160ff87168152602081018690529081018490527fea64ae307d9afb9f31293cc47929639e83ebd5c2361821daf293a88366312bf59060600160405180910390a2506007549392505050565b6114da61150f565b6001600160a01b03811661150357604051631e4fbdf760e01b81525f60048201526024016106e1565b61150c8161153c565b50565b6001546001600160a01b031633146109395760405163118cdaa760e01b81523360048201526024016106e1565b600180546001600160a01b038381166001600160a01b0319831681179093556040519116919082907f8be0079c531659141344cd1fd0a4f28419497f9722a3daafe3b4186f6b6457e0905f90a35050565b60025f54036115af57604051633ee5aeb560e01b815260040160405180910390fd5b60025f55565b5f818152600260205260408120905b6006820154811015611666575f838152600360205260408120600684018054839190859081106115f6576115f6611c39565b5f9182526020808320909101546001600160a01b03168352820192909252604001812091505b600581101561165c57600282018054600180820183555f9283526020928390209282049092018054601f9092166101000a60ff021990911690550161161c565b50506001016115c4565b505050565b5f8181526002602052604081209080805b600684015481101561171d575f858152600360205260408120600686018054919291849081106116ae576116ae611c39565b5f9182526020808320909101546001600160a01b0316835282019290925260400190206005015460ff1661171557826116e681611c61565b9350508360060181815481106116fe576116fe611c39565b5f918252602090912001546001600160a01b031691505b60010161167c565b50600182116108365760058301805461ff001916905560018290036108365760038301546040516001600160a01b0383169180156108fc02915f818181858888f19350505050158015611772573d5f803e3d5ffd5b50806001600160a01b0316847ff1898de79c348962fab7695532341027e5bceb0ea2a8785790fa7d7efeeee12985600301546040516117b391815260200190565b60405180910390a350505050565b828054828255905f5260205f2090601f01602090048101928215611851579160200282015f5b8382111561182357835183826101000a81548160ff02191690831515021790555092602001926001016020815f010492830192600103026117e7565b801561184f5782816101000a81549060ff02191690556001016020815f01049283019260010302611823565b505b5061185d9291506118b4565b5090565b828054828255905f5260205f20908101928215611851579160200282015b8281111561185157825182546001600160a01b0319166001600160a01b0390911617825560209092019160019091019061187f565b5b8082111561185d575f81556001016118b5565b80356001600160a01b03811681146118de575f80fd5b919050565b5f80604083850312156118f4575f80fd5b6118fd836118c8565b946020939093013593505050565b5f6020828403121561191b575f80fd5b5035919050565b5f60208284031215611932575f80fd5b61193b826118c8565b9392505050565b602080825282518282018190525f9190848201906040850190845b818110156119795783518352928401929184019160010161195d565b50909695505050505050565b5f8060408385031215611996575f80fd5b50508035926020909101359150565b634e487b7160e01b5f52604160045260245ffd5b803580151581146118de575f80fd5b5f80604083850312156119d9575f80fd5b8235915060208084013567ffffffffffffffff808211156119f8575f80fd5b818601915086601f830112611a0b575f80fd5b813581811115611a1d57611a1d6119a5565b8060051b604051601f19603f83011681018181108582111715611a4257611a426119a5565b604052918252848201925083810185019189831115611a5f575f80fd5b938501935b82851015611a8457611a75856119b9565b84529385019392850192611a64565b8096505050505050509250929050565b5f6101608083018e845260208e60208601528d60408601528c60608601528b608086015260ff8b1660a086015289151560c086015288151560e0860152826101008601528192508751808352610180860193506020890192505f5b81811015611b145783516001600160a01b031685529382019392820192600101611aef565b505050506101208301949094525061014001529998505050505050505050565b5f8060408385031215611b45575f80fd5b82359150611b55602084016118c8565b90509250929050565b5f8060408385031215611b6f575f80fd5b82359150611b55602084016119b9565b5f805f8060808587031215611b92575f80fd5b84359350611ba2602086016119b9565b9250611bb0604086016119b9565b9150611bbe606086016119b9565b905092959194509250565b602080825282518282018190525f9190848201906040850190845b81811015611979578351151583529284019291840191600101611be4565b5f805f60608486031215611c14575f80fd5b833560ff81168114611c24575f80fd5b95602085013595506040909401359392505050565b634e487b7160e01b5f52603260045260245ffd5b634e487b7160e01b5f52601160045260245ffd5b5f60018201611c7257611c72611c4d565b5060010190565b8082018082111561121557611215611c4d565b5f6040820160408352808554808352606085019150865f526020925060205f205f5b82811015611cd35781546001600160a01b031684529284019260019182019101611cae565b50505060209390930193909352509291505056fea164736f6c6343000818000a",
  "linkReferences": {},
  "deployedLinkReferences": {}
}