{
  "_format": "hh-sol-artifact-1",
  "contractName": "PokerGame",
  "sourceName": "contracts/PokerGame.sol",
  "abi": [
    {
      "inputs": [],
      "stateMutability": "nonpayable",
      "type": "constructor"
    },
    {
      "inputs": [
        {
          "internalType": "address",
          "name": "owner",
          "type": "address"
        }
      ],
      "name": "OwnableInvalidOwner",
      "type": "error"
    },
    {
      "inputs": [
        {
          "internalType": "address",
          "name": "account",
          "type": "address"
        }
      ],
      "name": "OwnableUnauthorizedAccount",
      "type": "error"
    },
    {
      "inputs": [],
      "name": "ReentrancyGuardReentrantCall",
      "type": "error"
    },
    {
      "anonymous": false,
      "inputs": [
        {
          "indexed": true,
          "internalType": "uint256",
          "name": "gameId",
          "type": "uint256"
        },
        {
          "indexed": false,
          "internalType": "uint256",
          "name": "round",
          "type": "uint256"
        }
      ],
      "name": "CardsDealt",
      "type": "event"
    },
    {
      "anonymous": false,
      "inputs": [
        {
          "indexed": true,
          "internalType": "uint256",
          "name": "gameId",
          "type": "uint256"
        },
        {
          "indexed": false,
          "internalType": "uint8",
          "name": "gameType",
          "type": "uint8"
        },
        {
          "indexed": false,
          "internalType": "uint256",
          "name": "maxPlayers",
          "type": "uint256"
        },
        {
          "indexed": false,
          "internalType": "uint256",
          "name": "minBet",
          "type": "uint256"
        }
      ],
      "name": "GameCreated",
      "type": "event"
    },
    {
      "anonymous": false,
      "inputs": [
        {
          "indexed": true,
          "internalType": "uint256",
          "name": "gameId",
          "type": "uint256"
        },
        {
          "indexed": true,
          "internalType": "address",
          "name": "winner",
          "type": "address"
        },
        {
          "indexed": false,
          "internalType": "uint256",
          "name": "prize",
          "type": "uint256"
        }
      ],
      "name": "GameEnded",
      "type": "event"
    },
    {
      "anonymous": false,
      "inputs": [
        {
          "indexed": true,
          "internalType": "uint256",
          "name": "gameId",
          "type": "uint256"
        },
        {
          "indexed": false,
          "internalType": "address[]",
          "name": "players",
          "type": "address[]"
        },
        {
          "indexed": false,
          "internalType": "uint256",
          "name": "totalPot",
          "type": "uint256"
        }
      ],
      "name": "GameStarted",
      "type": "event"
    },
    {
      "anonymous": false,
      "inputs": [
        {
          "indexed": true,
          "internalType": "address",
          "name": "previousOwner",
          "type": "address"
        },
        {
          "indexed": true,
          "internalType": "address",
          "name": "newOwner",
          "type": "address"
        }
      ],
      "name": "OwnershipTransferred",
      "type": "event"
    },
    {
      "anonymous": false,
      "inputs": [
        {
          "indexed": true,
          "internalType": "uint256",
          "name": "gameId",
          "type": "uint256"
        },
        {
          "indexed": true,
          "internalType": "address",
          "name": "player",
          "type": "address"
        },
        {
          "indexed": false,
          "internalType": "uint256",
          "name": "totalPlayers",
          "type": "uint256"
        }
      ],
      "name": "PlayerJoined",
      "type": "event"
    },
    {
      "anonymous": false,
      "inputs": [
        {
          "indexed": true,
          "internalType": "uint256",
          "name": "gameId",
          "type": "uint256"
        },
        {
          "indexed": true,
          "internalType": "address",
          "name": "player",
          "type": "address"
        },
        {
          "indexed": false,
          "internalType": "uint256",
          "name": "moveId",
          "type": "uint256"
        },
        {
          "indexed": false,
          "internalType": "uint256",
          "name": "timestamp",
          "type": "uint256"
        }
      ],
      "name": "PlayerMoved",
      "type": "event"
    },
    {
      "inputs": [],
      "name": "CARDS_PER_HAND",
      "outputs": [
        {
          "internalType": "uint256",
          "name": "",
          "type": "uint256"
        }
      ],
      "stateMutability": "view",
      "type": "function"
    },
    {
      "inputs": [],
      "name": "MAX_PLAYERS",
      "outputs": [
        {
          "internalType": "uint256",
          "name": "",
          "type": "uint256"
        }
      ],
      "stateMutability": "view",
      "type": "function"
    },
    {
      "inputs": [],
      "name": "MIN_BET",
      "outputs": [
        {
          "internalType": "uint256",
          "name": "",
          "type": "uint256"
        }
      ],
      "stateMutability": "view",
      "type": "function"
    },
    {
      "inputs": [
        {
          "internalType": "uint256",
          "name": "_gameId",
          "type": "uint256"
        },
        {
          "internalType": "address",
          "name": "_player",
          "type": "address"
        },
        {
          "internalType": "uint32",
          "name": "_betAmount",
          "type": "uint32"
        }
      ],
      "name": "compareBetAmount",
      "outputs": [
        {
          "internalType": "ebool",
          "name": "",
          "type": "bytes32"
        }
      ],
      "stateMutability": "nonpayable",
      "type": "function"
    },
    {
      "inputs": [
        {
          "internalType": "uint8",
          "name": "_gameType",
          "type": "uint8"
        },
        {
          "internalType": "uint256",
          "name": "_maxPlayers",
          "type": "uint256"
        },
        {
          "internalType": "uint256",
          "name": "_minBet",
          "type": "uint256"
        }
      ],
      "name": "createGame",
      "outputs": [
        {
          "internalType": "uint256",
          "name": "",
          "type": "uint256"
        }
      ],
      "stateMutability": "nonpayable",
      "type": "function"
    },
    {
      "inputs": [
        {
          "internalType": "uint256",
          "name": "_gameId",
          "type": "uint256"
        }
      ],
      "name": "emergencyEndGame",
      "outputs": [],
      "stateMutability": "nonpayable",
      "type": "function"
    },
    {
      "inputs": [],
      "name": "gameCounter",
      "outputs": [
        {
          "internalType": "uint256",
          "name": "",
          "type": "uint256"
        }
      ],
      "stateMutability": "view",
      "type": "function"
    },
    {
      "inputs": [
        {
          "internalType": "uint256",
          "name": "",
          "type": "uint256"
        },
        {
          "internalType": "uint256",
          "name": "",
          "type": "uint256"
        }
      ],
      "name": "gameMoves",
      "outputs": [
        {
          "internalType": "uint256",
          "name": "gameId",
          "type": "uint256"
        },
        {
          "internalType": "address",
          "name": "player",
          "type": "address"
        },
        {
          "internalType": "ebool",
          "name": "encryptedCall",
          "type": "bytes32"
        },
        {
          "internalType": "ebool",
          "name": "encryptedRaise",
          "type": "bytes32"
        },
        {
          "internalType": "ebool",
          "name": "encryptedFold",
          "type": "bytes32"
        },
        {
          "internalType": "euint32",
          "name": "encryptedBetAmount",
          "type": "bytes32"
        },
        {
          "internalType": "uint256",
          "name": "timestamp",
          "type": "uint256"
        }
      ],
      "stateMutability": "view",
      "type": "function"
    },
    {
      "inputs": [
        {
          "internalType": "uint256",
          "name": "",
          "type": "uint256"
        }
      ],
      "name": "games",
      "outputs": [
        {
          "internalType": "uint256",
          "name": "gameId",
          "type": "uint256"
        },
        {
          "internalType": "uint256",
          "name": "maxPlayers",
          "type": "uint256"
        },
        {
          "internalType": "uint256",
          "name": "currentPlayers",
          "type": "uint256"
        },
        {
          "internalType": "uint256",
          "name": "totalPot",
          "type": "uint256"
        },
        {
          "internalType": "uint256",
          "name": "minBet",
          "type": "uint256"
        },
        {
          "internalType": "uint8",
          "name": "gameType",
          "type": "uint8"
        },
        {
          "internalType": "bool",
          "name": "isActive",
          "type": "bool"
        },
        {
          "internalType": "bool",
          "name": "hasStarted",
          "type": "bool"
        },
        {
          "internalType": "uint256",
          "name": "currentRound",
          "type": "uint256"
        },
        {
          "internalType": "uint256",
          "name": "timestamp",
          "type": "uint256"
        }
      ],
      "stateMutability": "view",
      "type": "function"
    },
    {
      "inputs": [
        {
          "internalType": "uint256",
          "name": "_gameId",
          "type": "uint256"
        }
      ],
      "name": "getGameInfo",
      "outputs": [
        {
          "components": [
            {
              "internalType": "uint256",
              "name": "gameId",
              "type": "uint256"
            },
            {
              "internalType": "uint256",
              "name": "maxPlayers",
              "type": "uint256"
            },
            {
              "internalType": "uint256",
              "name": "currentPlayers",
              "type": "uint256"
            },
            {
              "internalType": "uint256",
              "name": "totalPot",
              "type": "uint256"
            },
            {
              "internalType": "uint256",
              "name": "minBet",
              "type": "uint256"
            },
            {
              "internalType": "uint8",
              "name": "gameType",
              "type": "uint8"
            },
            {
              "internalType": "bool",
              "name": "isActive",
              "type": "bool"
            },
            {
              "internalType": "bool",
              "name": "hasStarted",
              "type": "bool"
            },
            {
              "internalType": "address[]",
              "name": "players",
              "type": "address[]"
            },
            {
              "internalType": "uint256",
              "name": "currentRound",
              "type": "uint256"
            },
            {
              "internalType": "uint256",
              "name": "timestamp",
              "type": "uint256"
            }
          ],
          "internalType": "struct PokerGame.Game",
          "name": "",
          "type": "tuple"
        }
      ],
      "stateMutability": "view",
      "type": "function"
    },
    {
      "inputs": [
        {
          "internalType": "uint256",
          "name": "_gameId",
          "type": "uint256"
        },
        {
          "internalType": "address",
          "name": "_player",
          "type": "address"
        }
      ],
      "name": "getPlayerCards",
      "outputs": [
        {
          "internalType": "ebool[]",
          "name": "",
          "type": "bytes32[]"
        }
      ],
      "stateMutability": "view",
      "type": "function"
    },
    {
      "inputs": [
        {
          "internalType": "uint256",
          "name": "_gameId",
          "type": "uint256"
        },
        {
          "internalType": "address",
          "name": "_player",
          "type": "address"
        }
      ],
      "name": "getPlayerEncryptedBet",
      "outputs": [
        {
          "internalType": "euint32",
          "name": "",
          "type": "bytes32"
        }
      ],
      "stateMutability": "view",
      "type": "function"
    },
    {
      "inputs": [
        {
          "internalType": "uint256",
          "name": "_gameId",
          "type": "uint256"
        },
        {
          "internalType": "address",
          "name": "_player",
          "type": "address"
        }
      ],
      "name": "getPlayerEncryptedFoldStatus",
      "outputs": [
        {
          "internalType": "ebool",
          "name": "",
          "type": "bytes32"
        }
      ],
      "stateMutability": "view",
      "type": "function"
    },
    {
      "inputs": [
        {
          "internalType": "address",
          "name": "_player",
          "type": "address"
        }
      ],
      "name": "getPlayerGames",
      "outputs": [
        {
          "internalType": "uint256[]",
          "name": "",
          "type": "uint256[]"
        }
      ],
      "stateMutability": "view",
      "type": "function"
    },
    {
      "inputs": [],
      "name": "getTotalGames",
      "outputs": [
        {
          "internalType": "uint256",
          "name": "",
          "type": "uint256"
        }
      ],
      "stateMutability": "view",
      "type": "function"
    },
    {
      "inputs": [
        {
          "internalType": "uint256",
          "name": "",
          "type": "uint256"
        },
        {
          "internalType": "address",
          "name": "",
          "type": "address"
        }
      ],
      "name": "hasJoined",
      "outputs": [
        {
          "internalType": "bool",
          "name": "",
          "type": "bool"
        }
      ],
      "stateMutability": "view",
      "type": "function"
    },
    {
      "inputs": [
        {
          "internalType": "uint256",
          "name": "_gameId",
          "type": "uint256"
        },
        {
          "internalType": "address",
          "name": "_player",
          "type": "address"
        },
        {
          "internalType": "bool",
          "name": "_foldValue",
          "type": "bool"
        }
      ],
      "name": "isPlayerFolded",
      "outputs": [
        {
          "internalType": "ebool",
          "name": "",
          "type": "bytes32"
        }
      ],
      "stateMutability": "nonpayable",
      "type": "function"
    },
    {
      "inputs": [
        {
          "internalType": "uint256",
          "name": "_gameId",
          "type": "uint256"
        },
        {
          "internalType": "bool",
          "name": "_wantsToJoin",
          "type": "bool"
        }
      ],
      "name": "joinGame",
      "outputs": [],
      "stateMutability": "payable",
      "type": "function"
    },
    {
      "inputs": [
        {
          "internalType": "uint256",
          "name": "_gameId",
          "type": "uint256"
        },
        {
          "internalType": "bool",
          "name": "_call",
          "type": "bool"
        },
        {
          "internalType": "bool",
          "name": "_raise",
          "type": "bool"
        },
        {
          "internalType": "bool",
          "name": "_fold",
          "type": "bool"
        }
      ],
      "name": "makeMove",
      "outputs": [],
      "stateMutability": "payable",
      "type": "function"
    },
    {
      "inputs": [],
      "name": "moveCounter",
      "outputs": [
        {
          "internalType": "uint256",
          "name": "",
          "type": "uint256"
        }
      ],
      "stateMutability": "view",
      "type": "function"
    },
    {
      "inputs": [],
      "name": "owner",
      "outputs": [
        {
          "internalType": "address",
          "name": "",
          "type": "address"
        }
      ],
      "stateMutability": "view",
      "type": "function"
    },
    {
      "inputs": [
        {
          "internalType": "address",
          "name": "",
          "type": "address"
        },
        {
          "internalType": "uint256",
          "name": "",
          "type": "uint256"
        }
      ],
      "name": "playerGames",
      "outputs": [
        {
          "internalType": "uint256",
          "name": "",
          "type": "uint256"
        }
      ],
      "stateMutability": "view",
      "type": "function"
    },
    {
      "inputs": [
        {
          "internalType": "uint256",
          "name": "",
          "type": "uint256"
        },
        {
          "internalType": "address",
          "name": "",
          "type": "address"
        }
      ],
      "name": "playerStates",
      "outputs": [
        {
          "internalType": "address",
          "name": "player",
          "type": "address"
        },
        {
          "internalType": "uint256",
          "name": "gameId",
          "type": "uint256"
        },
        {
          "internalType": "ebool",
          "name": "isActive",
          "type": "bytes32"
        },
        {
          "internalType": "euint32",
          "name": "encryptedBet",
          "type": "bytes32"
        },
        {
          "internalType": "ebool",
          "name": "hasFolded",
          "type": "bytes32"
        },
        {
          "internalType": "uint256",
          "name": "totalBet",
          "type": "uint256"
        },
        {
          "internalType": "uint256",
          "name": "lastAction",
          "type": "uint256"
        }
      ],
      "stateMutability": "view",
      "type": "function"
    },
    {
      "inputs": [],
      "name": "renounceOwnership",
      "outputs": [],
      "stateMutability": "nonpayable",
      "type": "function"
    },
    {
      "inputs": [
        {
          "internalType": "uint256",
          "name": "_gameId",
          "type": "uint256"
        },
        {
          "internalType": "bool[]",
          "name": "_cards",
          "type": "bool[]"
        }
      ],
      "name": "revealCards",
      "outputs": [],
      "stateMutability": "nonpayable",
      "type": "function"
    },
    {
      "inputs": [
        {
          "internalType": "address",
          "name": "newOwner",
          "type": "address"
        }
      ],
      "name": "transferOwnership",
      "outputs": [],
      "stateMutability": "nonpayable",
      "type": "function"
    },
    {
      "inputs": [],
      "name": "withdraw",
      "outputs": [],
      "stateMutability": "nonpayable",
      "type": "function"
    },
    {
      "stateMutability": "payable",
      "type": "receive"
    }
  ],
  "bytecode": "0x608060405234801562000010575f80fd5b5060015f5533806200003b57604051631e4fbdf760e01b81525f600482015260240160405180910390fd5b620000468162000217565b50620001c3620000e7604080516080810182525f808252602082018190529181018290526060810191909152506040805160808101825273687820221192c5b662b25367f70076a37bc79b6c815273848b0066793bcc60346da1f49049357399b8d5956020820152731364cbbf2cdf5032c47d8226a6f6fbd2afcdacac9181019190915273bc91f3dad1a5f19f8390c400196e58073b6a0bc4606082015290565b80517fed8d60e34876f751cc8b014c560745351147d9de11b9347c854e881b128ea60080546001600160a01b03199081166001600160a01b039384161790915560208301517fed8d60e34876f751cc8b014c560745351147d9de11b9347c854e881b128ea6018054831691841691909117905560408301517fed8d60e34876f751cc8b014c560745351147d9de11b9347c854e881b128ea6028054831691841691909117905560608301517fed8d60e34876f751cc8b014c560745351147d9de11b9347c854e881b128ea6038054909216921691909117905550565b7f5ea69329017273582817d320489fbd94f775580e90c092699ca6f3d12fdf7d0080546001600160a01b03191673a02cda4ca3a71d7c46997716f4283aa851c288121790555f600281905560035562000268565b600180546001600160a01b038381166001600160a01b0319831681179093556040519116919082907f8be0079c531659141344cd1fd0a4f28419497f9722a3daafe3b4186f6b6457e0905f90a35050565b6125ee80620002765f395ff3fe6080604052600436106101a7575f3560e01c806368194719116100e75780639f97f1fd11610087578063c653c9a111610062578063c653c9a1146105de578063e3159687146105fd578063e52e22ff1461061c578063f2fde38b1461063b575f80fd5b80639f97f1fd14610505578063b256b11b14610518578063c0338ba314610537575f80fd5b8063715018a6116100c2578063715018a614610498578063763653bd146104ac5780638da5cb5b146104cb57806394517b90146104f2575f80fd5b8063681947191461041c57806368575608146104655780636998348914610479575f80fd5b8063330a85d41161015257806347e1d5501161012d57806347e1d550146103ad57806348f640d9146103d95780635bd4349b146103ee5780636540742f14610402575f80fd5b8063330a85d4146103645780633ccfd60b146103855780634411b3eb14610399575f80fd5b8063165555ac11610182578063165555ac146102d45780632a02ac63146102f35780632e0be39a1461034f575f80fd5b80630a5694c2146101b2578063117a5b90146101e4578063129daf84146102a8575f80fd5b366101ae57005b5f80fd5b3480156101bd575f80fd5b506101d16101cc3660046120eb565b61065a565b6040519081526020015b60405180910390f35b3480156101ef575f80fd5b506102576101fe366004612113565b600460208190525f918252604090912080546001820154600283015460038401549484015460058501546007860154600890960154949693959294919260ff80831693610100840482169362010000900490911691908a565b604080519a8b5260208b0199909952978901969096526060880194909452608087019290925260ff1660a0860152151560c0850152151560e0840152610100830152610120820152610140016101db565b3480156102b3575f80fd5b506102c76102c236600461212a565b610685565b6040516101db9190612143565b3480156102df575f80fd5b506101d16102ee366004612186565b6106ee565b3480156102fe575f80fd5b5061031261030d3660046121b0565b61077e565b604080519788526001600160a01b039096166020880152948601939093526060850191909152608084015260a083015260c082015260e0016101db565b34801561035a575f80fd5b506101d160025481565b34801561036f575f80fd5b5061038361037e3660046121f3565b6107de565b005b348015610390575f80fd5b5061038361091c565b3480156103a4575f80fd5b506101d1600881565b3480156103b8575f80fd5b506103cc6103c7366004612113565b610a26565b6040516101db9190612302565b3480156103e4575f80fd5b506101d160035481565b3480156103f9575f80fd5b506002546101d1565b34801561040d575f80fd5b506101d1662386f26fc1000081565b348015610427575f80fd5b50610455610436366004612186565b600860209081525f928352604080842090915290825290205460ff1681565b60405190151581526020016101db565b348015610470575f80fd5b506101d1600581565b348015610484575f80fd5b506101d16104933660046123ad565b610bba565b3480156104a3575f80fd5b50610383610c72565b3480156104b7575f80fd5b506101d16104c6366004612186565b610c85565b3480156104d6575f80fd5b506001546040516001600160a01b0390911681526020016101db565b6103836105003660046123f2565b610d0f565b610383610513366004612413565b61114b565b348015610523575f80fd5b50610383610532366004612113565b611401565b348015610542575f80fd5b5061059f610551366004612186565b600560208181525f9384526040808520909152918352912080546001820154600383015460048401549484015460068501546007909501546001600160a01b03909416959294919390919087565b604080516001600160a01b0390981688526020880196909652948601939093526060850191909152608084015260a083015260c082015260e0016101db565b3480156105e9575f80fd5b506102c76105f8366004612186565b6115ab565b348015610608575f80fd5b506101d161061736600461245d565b61167d565b348015610627575f80fd5b506101d1610636366004612496565b611729565b348015610646575f80fd5b5061038361065536600461212a565b6119de565b6007602052815f5260405f208181548110610673575f80fd5b905f5260205f20015f91509150505481565b6001600160a01b0381165f908152600760209081526040918290208054835181840281018401909452808452606093928301828280156106e257602002820191905f5260205f20905b8154815260200190600101908083116106ce575b50505050509050919050565b5f336001600160a01b038316148061071057506001546001600160a01b031633145b6107525760405162461bcd60e51b815260206004820152600e60248201526d139bdd08185d5d1a1bdc9a5e995960921b60448201526064015b60405180910390fd5b505f8281526005602081815260408084206001600160a01b038616855290915290912001545b92915050565b6006602052815f5260405f208181548110610797575f80fd5b5f91825260209091206007909102018054600182015460028301546003840154600485015460058601546006909601549497506001600160a01b0390931695509093909287565b5f82815260086020908152604080832033845290915290205460ff166108345760405162461bcd60e51b815260206004820152600b60248201526a4e6f7420696e2067616d6560a81b6044820152606401610749565b6005815111156108865760405162461bcd60e51b815260206004820152600e60248201527f546f6f206d616e792063617264730000000000000000000000000000000000006044820152606401610749565b5f8281526005602090815260408083203384529091528120905b8251811080156108b05750600581105b15610916576002820154811015610904576108e38382815181106108d6576108d66124cd565b6020026020010151611a1b565b8260020182815481106108f8576108f86124cd565b5f918252602090912001555b8061090e816124f5565b9150506108a0565b50505050565b610924611a36565b47806109725760405162461bcd60e51b815260206004820152601660248201527f4e6f2062616c616e636520746f207769746864726177000000000000000000006044820152606401610749565b5f6109856001546001600160a01b031690565b6001600160a01b0316826040515f6040518083038185875af1925050503d805f81146109cc576040519150601f19603f3d011682016040523d82523d5f602084013e6109d1565b606091505b5050905080610a225760405162461bcd60e51b815260206004820152601160248201527f5769746864726177616c206661696c65640000000000000000000000000000006044820152606401610749565b5050565b610a806040518061016001604052805f81526020015f81526020015f81526020015f81526020015f81526020015f60ff1681526020015f151581526020015f15158152602001606081526020015f81526020015f81525090565b6002548211158015610a9157505f82115b610acf5760405162461bcd60e51b815260206004820152600f60248201526e125b9d985b1a590819d85b59481251608a1b6044820152606401610749565b5f828152600460208181526040928390208351610160810185528154815260018201548184015260028201548186015260038201546060820152928101546080840152600581015460ff80821660a08601526101008083048216151560c08701526201000090920416151560e08501526006820180548651818602810186019097528087529495929491860193909190830182828015610b9657602002820191905f5260205f20905b81546001600160a01b03168152600190910190602001808311610b78575b50505050508152602001600782015481526020016008820154815250509050919050565b5f610bcd6001546001600160a01b031690565b6001600160a01b0316336001600160a01b031614610c2d5760405162461bcd60e51b815260206004820152601660248201527f4f6e6c79206f776e65722063616e20636f6d70617265000000000000000000006044820152606401610749565b5f8481526005602090815260408083206001600160a01b038716845290915281206004015490610c5c84611a63565b9050610c688282611a75565b9695505050505050565b610c7a611a36565b610c835f611aaa565b565b5f336001600160a01b0383161480610ca757506001546001600160a01b031633145b610ce45760405162461bcd60e51b815260206004820152600e60248201526d139bdd08185d5d1a1bdc9a5e995960921b6044820152606401610749565b505f9182526005602090815260408084206001600160a01b0393909316845291905290206004015490565b610d17611afb565b6002548211158015610d2857505f82115b610d665760405162461bcd60e51b815260206004820152600f60248201526e125b9d985b1a590819d85b59481251608a1b6044820152606401610749565b5f82815260086020908152604080832033845290915290205460ff1615610dcf5760405162461bcd60e51b815260206004820152600e60248201527f416c7265616479206a6f696e65640000000000000000000000000000000000006044820152606401610749565b5f8281526004602052604090206005810154610100900460ff168015610e005750600581015462010000900460ff16155b610e4c5760405162461bcd60e51b815260206004820152601260248201527f47616d65206e6f7420617661696c61626c6500000000000000000000000000006044820152606401610749565b8060010154816002015410610ea35760405162461bcd60e51b815260206004820152600960248201527f47616d652066756c6c00000000000000000000000000000000000000000000006044820152606401610749565b8060040154341015610ef75760405162461bcd60e51b815260206004820152601060248201527f496e73756666696369656e7420626574000000000000000000000000000000006044820152606401610749565b5f610f0183611a1b565b90508215611140576006820180546001810182555f918252602082200180546001600160a01b0319163317905560028301805491610f3e836124f5565b919050555034826003015f828254610f56919061250d565b90915550505f84815260086020908152604080832033808552908352818420805460ff1916600190811790915560078452828520805491820181558552938390209093018790558051610100810182529283528282018790528051600580825260c08201835291840192909190820160a0803683375050508152602001610fdd6001611a1b565b8152602001610ff5610ff0600134612520565b611a63565b81526020016110035f611a1b565b815234602080830191909152426040928301525f878152600582528281203382528252829020835181546001600160a01b0319166001600160a01b039091161781558382015160018201559183015180516110649260028501920190612020565b50606082015160038201556080820151600482015560a0820151600582015560c0820151600682015560e0909101516007909101556002820154604051908152339085907f03dfbe1fcb4e2d61f3b4a0c93d8f814c92250618b3387f396cc9fc9fafe2c2039060200160405180910390a36002826002015410611140576110ea84611b23565b60058201805462ff0000191662010000179055600382015460405185917f13e9b6ae0391777337703847da7adf7556a75841658099d7190ef4c9ea1c42959161113791600687019161253f565b60405180910390a25b5050610a2260015f55565b611153611afb565b5f84815260086020908152604080832033845290915290205460ff166111a95760405162461bcd60e51b815260206004820152600b60248201526a4e6f7420696e2067616d6560a81b6044820152606401610749565b5f8481526004602052604090206005810154610100900460ff1680156111d95750600581015462010000900460ff165b6112255760405162461bcd60e51b815260206004820152600f60248201527f47616d65206e6f742061637469766500000000000000000000000000000000006044820152606401610749565b5f85815260056020908152604080832033845290915281209061124786611a1b565b90505f61125386611a1b565b90505f61125f86611a1b565b90505f61126b5f611a63565b905087801561127957505f34115b156112c15761128c610ff0600134612520565b905034866003015f8282546112a1919061250d565b9250508190555034856006015f8282546112bb919061250d565b90915550505b86156112e5576112d16001611a1b565b60058601556112df5f611a1b565b60038601555b42600786015560038054905f6112fa836124f5565b90915550505f8a8152600660208181526040808420815160e0810183528f8152338185018181528285018c8152606084018c8152608085018c815260a086018c81524260c08801818152895460018082018c559a8f529d8c902098516007909e029098019c8d559451978c0180546001600160a01b0319166001600160a01b0390991698909817909755915160028b0155516003808b0191909155905160048a015593516005890155915196909501959095555481519081529182019390935290918c917fb5ac3117b47d1355284f96ae97a243bdf1b9879eb07334364220e37d71fbdda4910160405180910390a36113f28a611c05565b50505050505061091660015f55565b611409611a36565b5f8181526004602052604090206005810154610100900460ff1661146f5760405162461bcd60e51b815260206004820152601260248201527f47616d6520616c726561647920656e64656400000000000000000000000000006044820152606401610749565b60058101805461ff0019169055600281015460038201545f9161149191612520565b90505f5b600683015481101561156e578115611566575f8360060182815481106114bd576114bd6124cd565b5f9182526020822001546040516001600160a01b039091169185919081818185875af1925050503d805f811461150e576040519150601f19603f3d011682016040523d82523d5f602084013e611513565b606091505b50509050806115645760405162461bcd60e51b815260206004820152600d60248201527f526566756e64206661696c6564000000000000000000000000000000000000006044820152606401610749565b505b600101611495565b506040515f8082529084907ff1898de79c348962fab7695532341027e5bceb0ea2a8785790fa7d7efeeee1299060200160405180910390a3505050565b6060336001600160a01b03831614806115ce57506001546001600160a01b031633145b61160b5760405162461bcd60e51b815260206004820152600e60248201526d139bdd08185d5d1a1bdc9a5e995960921b6044820152606401610749565b5f8381526005602090815260408083206001600160a01b03861684528252918290206002018054835181840281018401909452808452909183018282801561167057602002820191905f5260205f20905b81548152602001906001019080831161165c575b5050505050905092915050565b5f6116906001546001600160a01b031690565b6001600160a01b0316336001600160a01b0316146116f05760405162461bcd60e51b815260206004820152601460248201527f4f6e6c79206f776e65722063616e20636865636b0000000000000000000000006044820152606401610749565b5f8481526005602081815260408084206001600160a01b0388168552909152822001549061171d84611a1b565b9050610c688282611d04565b5f60038460ff16111561177e5760405162461bcd60e51b815260206004820152601160248201527f496e76616c69642067616d6520747970650000000000000000000000000000006044820152606401610749565b60028310158015611790575060088311155b6117dc5760405162461bcd60e51b815260206004820152601460248201527f496e76616c696420706c6179657220636f756e740000000000000000000000006044820152606401610749565b662386f26fc100008210156118335760405162461bcd60e51b815260206004820152600b60248201527f42657420746f6f206c6f770000000000000000000000000000000000000000006044820152606401610749565b60028054905f611842836124f5565b919050555060405180610160016040528060025481526020018481526020015f81526020015f81526020018381526020018560ff1681526020016001151581526020015f151581526020015f67ffffffffffffffff8111156118a6576118a66121d0565b6040519080825280602002602001820160405280156118cf578160200160208202803683370190505b5081525f6020808301829052426040938401526002805483526004808352928490208551815585830151600182015593850151908401556060840151600384015560808401519183019190915560a083015160058301805460c086015160e08701511515620100000262ff00001991151561010090810261ffff1990941660ff90961695909517929092171617905583015180516119739260068501920190612069565b506101208201516007820155610140909101516008909101556002546040805160ff87168152602081018690529081018490527fea64ae307d9afb9f31293cc47929639e83ebd5c2361821daf293a88366312bf59060600160405180910390a2506002549392505050565b6119e6611a36565b6001600160a01b038116611a0f57604051631e4fbdf760e01b81525f6004820152602401610749565b611a1881611aaa565b50565b5f61077882611a2a575f611a2d565b60015b60ff165f611d24565b6001546001600160a01b03163314610c835760405163118cdaa760e01b8152336004820152602401610749565b5f6107788263ffffffff166004611d24565b5f82611a8757611a845f611a63565b92505b81611a9857611a955f611a63565b91505b611aa383835f611de1565b9392505050565b600180546001600160a01b038381166001600160a01b0319831681179093556040519116919082907f8be0079c531659141344cd1fd0a4f28419497f9722a3daafe3b4186f6b6457e0905f90a35050565b60025f5403611b1d57604051633ee5aeb560e01b815260040160405180910390fd5b60025f55565b5f818152600460205260408120905b6006820154811015611bc2575f826006018281548110611b5457611b546124cd565b5f9182526020808320909101548683526005825260408084206001600160a01b0390921680855291909252908220909250905b6005811015611bb75781600201611b9d5f611a1b565b8154600181810184555f9384526020909320015501611b87565b505050600101611b32565b5060016007820181905560405190815282907f92df3b2baae9a7e791b908bfafcb5122f27bd8b9b5d3cd3c37c829be6c44aaba9060200160405180910390a25050565b5f8181526004602052604081209080805b6006840154811015611cae575f85815260056020526040812060068601805483919085908110611c4857611c486124cd565b5f9182526020808320909101546001600160a01b031683528201929092526040019020905083611c77816124f5565b945050846006018281548110611c8f57611c8f6124cd565b5f918252602090912001546001600160a01b0316925050600101611c16565b5081600103611cc657611cc18482611eb7565b610916565b60048360070154106109165761091684846006015f81548110611ceb57611ceb6124cd565b5f918252602090912001546001600160a01b0316611eb7565b5f82611d1657611d135f611a1b565b92505b81611a9857611a955f611a1b565b7fed8d60e34876f751cc8b014c560745351147d9de11b9347c854e881b128ea60154604051639cd07acb60e01b81525f917fed8d60e34876f751cc8b014c560745351147d9de11b9347c854e881b128ea600916001600160a01b0390911690639cd07acb90611d99908790879060040161259a565b6020604051808303815f875af1158015611db5573d5f803e3d5ffd5b505050506040513d601f19601f82011682018060405250810190611dd991906125ca565b949350505050565b5f808215611df45750600160f81b611df7565b505f5b5f7fed8d60e34876f751cc8b014c560745351147d9de11b9347c854e881b128ea600600181015460405163f77f3f1d60e01b815260048101899052602481018890527fff00000000000000000000000000000000000000000000000000000000000000851660448201529192506001600160a01b03169063f77f3f1d906064016020604051808303815f875af1158015611e93573d5f803e3d5ffd5b505050506040513d601f19601f82011682018060405250810190610c6891906125ca565b5f8281526004602052604090206005810154610100900460ff16611f1d5760405162461bcd60e51b815260206004820152601260248201527f47616d6520616c726561647920656e64656400000000000000000000000000006044820152606401610749565b60058101805461ff001916905560038101548015611fd6575f836001600160a01b0316826040515f6040518083038185875af1925050503d805f8114611f7e576040519150601f19603f3d011682016040523d82523d5f602084013e611f83565b606091505b5050905080611fd45760405162461bcd60e51b815260206004820152601560248201527f5072697a65207472616e73666572206661696c656400000000000000000000006044820152606401610749565b505b826001600160a01b0316847ff1898de79c348962fab7695532341027e5bceb0ea2a8785790fa7d7efeeee1298360405161201291815260200190565b60405180910390a350505050565b828054828255905f5260205f20908101928215612059579160200282015b8281111561205957825182559160200191906001019061203e565b506120659291506120bc565b5090565b828054828255905f5260205f20908101928215612059579160200282015b8281111561205957825182546001600160a01b0319166001600160a01b03909116178255602090920191600190910190612087565b5b80821115612065575f81556001016120bd565b80356001600160a01b03811681146120e6575f80fd5b919050565b5f80604083850312156120fc575f80fd5b612105836120d0565b946020939093013593505050565b5f60208284031215612123575f80fd5b5035919050565b5f6020828403121561213a575f80fd5b611aa3826120d0565b602080825282518282018190525f9190848201906040850190845b8181101561217a5783518352928401929184019160010161215e565b50909695505050505050565b5f8060408385031215612197575f80fd5b823591506121a7602084016120d0565b90509250929050565b5f80604083850312156121c1575f80fd5b50508035926020909101359150565b634e487b7160e01b5f52604160045260245ffd5b803580151581146120e6575f80fd5b5f8060408385031215612204575f80fd5b8235915060208084013567ffffffffffffffff80821115612223575f80fd5b818601915086601f830112612236575f80fd5b813581811115612248576122486121d0565b8060051b604051601f19603f8301168101818110858211171561226d5761226d6121d0565b60405291825284820192508381018501918983111561228a575f80fd5b938501935b828510156122af576122a0856121e4565b8452938501939285019261228f565b8096505050505050509250929050565b5f815180845260208085019450602084015f5b838110156122f75781516001600160a01b0316875295820195908201906001016122d2565b509495945050505050565b6020815281516020820152602082015160408201526040820151606082015260608201516080820152608082015160a08201525f60a083015161234a60c084018260ff169052565b5060c083015180151560e08401525060e083015161010061236e8185018315159052565b80850151915050610160610120818186015261238e6101808601846122bf565b9086015161014086810191909152909501519301929092525090919050565b5f805f606084860312156123bf575f80fd5b833592506123cf602085016120d0565b9150604084013563ffffffff811681146123e7575f80fd5b809150509250925092565b5f8060408385031215612403575f80fd5b823591506121a7602084016121e4565b5f805f8060808587031215612426575f80fd5b84359350612436602086016121e4565b9250612444604086016121e4565b9150612452606086016121e4565b905092959194509250565b5f805f6060848603121561246f575f80fd5b8335925061247f602085016120d0565b915061248d604085016121e4565b90509250925092565b5f805f606084860312156124a8575f80fd5b833560ff811681146124b8575f80fd5b95602085013595506040909401359392505050565b634e487b7160e01b5f52603260045260245ffd5b634e487b7160e01b5f52601160045260245ffd5b5f60018201612506576125066124e1565b5060010190565b80820180821115610778576107786124e1565b5f8261253a57634e487b7160e01b5f52601260045260245ffd5b500490565b5f6040820160408352808554808352606085019150865f526020925060205f205f5b828110156125865781546001600160a01b031684529284019260019182019101612561565b505050602093909301939093525092915050565b82815260408101605483106125bd57634e487b7160e01b5f52602160045260245ffd5b8260208301529392505050565b5f602082840312156125da575f80fd5b505191905056fea164736f6c6343000818000a",
  "linkReferences": {},
  "deployedLinkReferences": {}
}